:020000040800F2
:1000000000500020150C0008090600080B06000827
:100010000D0600080F060008110600080000000089
:1000200000000000000000000000000013060008AF
:100030001506000800000000170600081906000851
:100040005D0C00085D0C00085D0C00085D0C0008EC
:100050005D0C00085D0C00085D0C00085D0C0008DC
:100060005D0C00085D0C00085D0C00085D0C0008CC
:100070005D0C00085D0C00085D0C00085D0C0008BC
:1000800021060008310600085D0C00085D0C000820
:100090005D0C00085D0C00085D0C00085D0C00089C
:1000A0005D0C00085D0C00085D0C00085D0C00088C
:1000B0005D0C00085D0C00085D0C00085D0C00087C
:1000C0005D0C00085D0C00085D0C00085D0C00086C
:1000D0005D0C00085D0C0008410600085D0C00087E
:1000E000510600085D0C00085D0C000800000000CF
:1000F0000000000000000000000000000000000000
:0C01000000000000000000005FF808F1A3
:10010C0000F1340191E838009C46A6464CF8045D99
:10011C0090E8FF0FE54600BD90EC210B704700BF47
:10012C0080EC210B704700BF90EC200B704700BF98
:10013C0080EC200B704700BFD0EC200B704700BF49
:10014C00C0EC200B704700BFF0EC0201F0EC021188
:10015C00F0EC0221F0EC0231F0EC0241F0EC025137
:10016C00F0EC0261F0EC0271F0EC0281F0EC029127
:10017C00F0EC02A1F0EC02B1F0EC02C1F0EC02D117
:10018C00F0EC02E1F0EC02F1704700BFE0EC020190
:10019C00E0EC0211E0EC0221E0EC0231E0EC024177
:1001AC00E0EC0251E0EC0261E0EC0271E0EC028167
:1001BC00E0EC0291E0EC02A1E0EC02B1E0EC02C157
:1001CC00E0EC02D1E0EC02E1E0EC02F1704700BFA0
:1001DC00B0FC0181B0FC0191B0FC01A1B0FC01B1FB
:1001EC00704700BFA0FC0181A0FC0191A0FC01A103
:1001FC00A0FC01B1704700BFEC4600B52DE90050E2
:10020C002DE9FF1F4FF000032DE90C0001A902F0AE
:10021C00A5FDDDF840E012B0704700BFEC4600B51C
:10022C002DE900502DE9FF1F4FF000032DE90C00C4
:10023C0001A902F0D5FDDDF840E012B0704700BF17
:10024C00EC4600B52DE900502DE9FF1F4FF00003DF
:10025C002DE90C0001A902F0E5FDDDF840E012B03B
:10026C00704700BFEC4600B52DE900502DE9FF1F8B
:10027C004FF000032DE90C0001AB02F0A5FDDDF8F9
:10028C0040E012B0704700BFEC4600B52DE90050BD
:10029C002DE9FF1F4FF000032DE90C0001AA02F01D
:1002AC001FFEDDF840E012B0704700BF844641EA03
:1002BC00000313F0030349D1403A23D30B680360C6
:1002CC004B6843608B688360CB68C3600B690361C8
:1002DC004B6943618B698361CB69C3610B6A0362B0
:1002EC004B6A43628B6A8362CB6AC3620B6B036398
:1002FC004B6B43638B6B8363CB6BC363403040317D
:10030C00403ADBD230320BD30B6803604B6843604E
:10031C008B688360CB68C36010301031103AF3D215
:10032C000C3205D351F8043B40F8043B043AF9D2A3
:10033C00043208D0D2071CBF11F8013B00F8013B76
:10034C0001D30B8803806046704700BF082A13D383
:10035C008B07B1D010F00303AED0C3F10403D21A53
:10036C00DB071CBF11F8013B00F8013BA4D331F8AB
:10037C00023B20F8023B9FE7043AD9D3013A11F82B
:10038C00013B00F8013BF9D20B7803704B784370BA
:10039C008B788370604670470348044B834202D0CD
:1003AC00034B03B11847704754010020540100203F
:1003BC00000000000548064B1B1AD90F01EBA301E6
:1003CC00491002D0034B03B1184770475401002069
:1003DC00540100200000000010B5064C237843B9EE
:1003EC00FFF7DAFF044B13B10448AFF3008001238D
:1003FC00237010BD5401002000000000B03A00082A
:10040C0008B5054B1BB105490548AFF30080BDE8A5
:10041C000840FFF7CFBF00BF0000000058010020CC
:10042C00B03A000800B583B00E4B5A6942F0010295
:10043C005A615B6903F001030193019B0022114691
:10044C00102000F097FC102000F0A4FC00221146B4
:10045C00112000F08FFC112000F09CFC03B05DF823
:10046C0004FB00BF001002402DE9F04389B004AD3D
:10047C0000240494059406940794314B9A6942F035
:10048C0020029A619A6902F020020192019A9A69FB
:10049C0042F004029A619A6902F004020292029AF2
:1004AC009A6942F008029A619B6903F0080303936E
:1004BC00039B244F2246F021384600F032FFDFF830
:1004CC008880224640F60341404600F02AFFF02384
:1004DC0004934FF00109CDF8149002260696079666
:1004EC002946384600F00CFE40F203430493CDF845
:1004FC001490069607962946404600F001FE4FF4EC
:10050C0000630493CDF81490069407962946404650
:10051C0000F0F6FD4FF4406304930C4B05930694E6
:10052C002946384600F0ECFD22462146282000F0F2
:10053C0021FC282000F02EFC09B0BDE8F08300BFA0
:10054C000010024000080140000C01400000211086
:10055C0072B6FEE710B590B006AC282200212046FA
:10056C0003F07AF900230193029303930493059308
:10057C00012206924FF4803307930A9202220D92C5
:10058C000E934FF4E0130F93204600F0F5FE78B96C
:10059C000F23019302210291002303934FF48062F5
:1005AC000492059301A801F019F918B910B010BD07
:1005BC00FFF7CEFFFFF7CCFF82B00E4B9A6942F0EB
:1005CC0001029A619A6902F001020092009ADA69BA
:1005DC0042F08052DA61DB6903F080530193019B96
:1005EC00054A536823F0E06343F00073536002B094
:1005FC00704700BF0010024000000140FEE7FEE71C
:10060C00FEE7FEE7FEE770477047704708B500F05D
:10061C0059FB08BD08B5024800F0D0FC08BD00BF6E
:10062C00D402002008B5024800F0C8FC08BD00BF89
:10063C009002002008B5024801F08CFE08BD00BFF6
:10064C001803002008B54FF4806000F071FE4FF4E1
:10065C00006000F06DFE08BD0120704708B503F086
:10066C008BF9162303604FF0FF3008BD08B54FF02F
:10067C00FF31FFF7F3FFFEE77047000084B003681B
:10068C001C4A934213D0B3F1804F1CD01A4A9342A8
:10069C0025D01A4A934214D1194BDA6942F004025C
:1006AC00DA61DB6903F004030393039B09E0144B49
:1006BC009A6942F400629A619B6903F400630093A7
:1006CC00009B04B0704703F50433DA6942F0010271
:1006DC00DA61DB6903F001030193019BF1E7084B3D
:1006EC00DA6942F00202DA61DB6903F00203029379
:1006FC00029BE6E7002C014000040040000800408B
:10070C000010024000B589B00023049305930693B2
:10071C0007930368344A93420BD0B3F1804F1DD03A
:10072C00324A93422FD0324A934249D009B05DF8F5
:10073C0004FB304B9A6942F004029A619B6903F006
:10074C0004030093009B4FF48073049302230593DE
:10075C00079304A9284800F0D3FCE7E703F504331A
:10076C009A6942F004029A619B6903F004030193B5
:10077C00019B0123049302230593079304A91E48AC
:10078C0000F0BEFCD2E71B4B9A6942F008029A615A
:10079C009B6903F008030293029B1023049302232A
:1007AC000593079304A9154800F0AAFC144A536852
:1007BC0023F4406343F0E06343F400635360B5E714
:1007CC000C4B9A6942F008029A619B6903F008038A
:1007DC000393039B4023049302230593079304A9DB
:1007EC00064800F08DFCA1E7002C014000040040FD
:1007FC00000800400010024000080140000C0140BD
:10080C000000014010B596B0002412941394149477
:10081C0015941094119409940A940B940C940D94BF
:10082C000E940F942022214601A803F015F82C48B1
:10083C002C4B03604723436084606323C3600461D3
:10084C004461846101F092F9002837D14FF4805350
:10085C00129312A9224801F089FA002831D12048BC
:10086C0001F0B0F900282FD100231093119310A997
:10087C001B4801F073FB50BB6023099300220A92C2
:10088C000B920C920D920E920F9209A9144801F042
:10089C00F3F9F8B90023019302930393049305939E
:1008AC004FF400520692089301A90D4801F08CFBFD
:1008BC0098B90B48FFF726FF16B010BDFFF748FE9E
:1008CC00C4E7FFF745FECAE7FFF742FECCE7FFF7A8
:1008DC003FFED1E7FFF73CFEDCE7FFF739FEE8E728
:1008EC0048020020002C014000B58FB000230A9371
:1008FC000B930C930D930893099301930293039319
:10090C00049305930693079320484FF080420260AE
:10091C004722426083606322C2600361836101F0FD
:10092C0025F920BB4FF480530A930AA9174801F00C
:10093C001DFAF8B9154801F045F9F0B900230893F0
:10094C00099308A9114801F009FBC8B96023019368
:10095C00002202920392059201A90C4801F08CF935
:10096C0088B90A48FFF7CEFE0FB05DF804FBFFF71D
:10097C00EFFDD7E7FFF7ECFDDCE7FFF7E9FDDDE77F
:10098C00FFF7E6FDE2E7FFF7E3FDEAE700020020F0
:10099C0000B58FB000230A930B930C930D9308931F
:1009AC00099301930293039304930593069307937E
:1009BC002048214A02604722426083606322C26061
:1009CC000361836101F0D2F820BB4FF480530A938A
:1009DC000AA9184801F0CAF9F8B9164801F0F2F85A
:1009EC00F0B900230893099308A9124801F0B6FA4C
:1009FC00C8B960230193002202920392059201A9C7
:100A0C000C4801F039F988B90A48FFF77BFE0FB0A2
:100A1C005DF804FBFFF79CFDD7E7FFF799FDDCE7DA
:100A2C00FFF796FDDDE7FFF793FDE2E7FFF790FD9B
:100A3C00EAE700BFB80100200004004000B58FB009
:100A4C0000230A930B930C930D9308930993019332
:100A5C000293039304930593069307932048214A2A
:100A6C0002604722426083606322C260036183613B
:100A7C0001F07CF820BB4FF480530A930AA9184864
:100A8C0001F074F9F8B9164801F09CF8F0B900239C
:100A9C000893099308A9124801F060FAC8B96023B9
:100AAC000193002202920392059201A90C4801F0D5
:100ABC00E3F888B90A48FFF725FE0FB05DF804FB90
:100ACC00FFF746FDD7E7FFF743FDDCE7FFF740FDF7
:100ADC00DDE7FFF73DFDE2E7FFF73AFDEAE700BF90
:100AEC00700100200008004008B50A480A4B03605A
:100AFC004FF4E133436000238360C36003610C2235
:100B0C0042618361C36101F03FFB00B908BDFFF78F
:100B1C001FFDFBE71803002000440040F0B587B030
:100B2C00002302930393049305930268304B9A427B
:100B3C0001D007B0F0BD044603F5E633DA6942F4A0
:100B4C000032DA61DA6902F400320092009A9A6992
:100B5C0042F004029A619B6903F004030193019B28
:100B6C0004230293022303930323059302AF214E24
:100B7C003946304600F0C4FA082302930025039549
:100B8C0004953946304600F0BBFA1B481B4B0360FA
:100B9C00456085608023C360056145618561C561E1
:100BAC0000F030F9F0B9144BE3635C621448154B58
:100BBC00036010234360002383608022C2600361C2
:100BCC0043618361C36100F01DF970B90C4BA363E1
:100BDC005C6200221146262000F0CCF8262000F0A2
:100BEC00D9F8A6E7FFF7B4FCDDE7FFF7B1FCEDE7BA
:100BFC000044004000080140D40200206C00024078
:100C0C009002002080000240FFF736FD0B480C4993
:100C1C000C4A002302E0D458C4500433C4188C424C
:100C2C00F9D3094A094C002301E013600432A242B3
:100C3C00FBD302F0A7FE01F029FF70470000002053
:100C4C0054010020403C00085401002048060020BC
:100C5C00FEE7000010B504460E4B1A784FF47A7379
:100C6C00B3FBF2F30C4A1068B0FBF3F000F0A0F801
:100C7C0068B90F2C01D901200AE0002221464FF05F
:100C8C00FF3000F077F8054B1C60002000E00120DD
:100C9C0010BD00BF04000020000000200800002050
:100CAC0008B5074A136843F010031360032000F0E3
:100CBC004FF80F20FFF7CEFFFFF77EFC002008BD9A
:100CCC0000200240034A1168034B1B780B4413604D
:100CDC00704700BF6003002004000020014B18681F
:100CEC00704700BF60030020002808DB0901C9B26F
:100CFC0000F1604000F5614080F80013704700F08F
:100D0C000F000901C9B2014B1954704714ED00E0F2
:100D1C0000B500F00700C0F1070CBCF1040F28BFB0
:100D2C004FF0040C031D062B0FD9C31E4FF0FF3ED2
:100D3C000EFA0CF021EA000199400EFA03FE22EAA9
:100D4C000E0241EA02005DF804FB0023EEE700000E
:100D5C00074AD36823F4E0631B041B0C000200F465
:100D6C00E060034343F0BF6343F40033D360704748
:100D7C0000ED00E010B50446054BD868C0F3022026
:100D8C00FFF7C6FF01462046FFF7AEFF10BD00BFC0
:100D9C0000ED00E0002807DB00F01F0240090123F2
:100DAC009340024A42F82030704700BF00E100E057
:100DBC000138B0F1807F0BD24FF0E0235861054A27
:100DCC00F02182F823100020986107221A617047E5
:100DDC000120704700ED00E030B40124056CAC40FC
:100DEC00C56B6C60046863604368102B05D00368A6
:100DFC0099600368DA6030BC704703689A600368D6
:100E0C00D960F8E750B310B402460168144B0B4498
:100E1C001448A0FB03031B099B001364124BD36300
:100E2C00022382F8213008686FF30D105368946820
:100E3C002343D4682343146923435469234394699B
:100E4C002343D469234303430B60002090630123A5
:100E5C0082F8213082F8200010BC704701207047C6
:100E6C00F8FFFDBFCDCCCCCC0000024038B5044619
:100E7C0090F82000012831D0012084F8200094F84B
:100E8C002100012804D0002384F82030022038BD32
:100E9C00022084F821000020A0632568286820F037
:100EAC00010028602046FFF797FFE36A5BB12268D8
:100EBC00136843F00E0313602268136843F00103B8
:100ECC0013600020E3E72268136823F00403136027
:100EDC002268136843F00A031360EDE70220D6E79B
:100EEC00034690F82120022A06D0042282630022B5
:100EFC0080F820200120704701680A6822F00E0259
:100F0C000A6001680A6822F001020A60026CC06B78
:100F1C00012101FA02F2426083F82110002083F8CB
:100F2C002000704708B590F82130022B03D0042321
:100F3C008363012008BD0268136823F00E0313605D
:100F4C000268136823F0010313600368194A934283
:100F5C0014D0143293421FD0143293421ED0143248
:100F6C0093421ED0143293421ED01432934202D0BC
:100F7C004FF0807203E04FF4801200E001220E4B20
:100F8C005A60012380F82130002380F82030436B15
:100F9C006BB198470020CDE71022F0E74FF4807238
:100FAC00EDE74FF48052EAE74FF48032E7E7002098
:100FBC00C0E700BF080002400000024038B5C36B18
:100FCC001A6804682568016C04238B40134235D0E1
:100FDC0015F0040F32D0236813F0200F03D12368CF
:100FEC0023F0040323600368434A934214D0143261
:100FFC00934218D01432934217D01432934217D024
:10100C001432934217D01432934202D04FF08062C4
:10101C0003E04FF4800200E00422384B5A60C36AAC
:10102C0003B1984738BD4022F7E74FF48062F4E7EC
:10103C004FF48042F1E74FF48022EEE702238B401D
:10104C0013423CD015F0020F39D0236813F0200F57
:10105C0006D1236823F00A032360012380F8213092
:10106C000368254A934214D0143293421CD0143294
:10107C0093421BD0143293421BD0143293421BD098
:10108C001432934202D04FF0007203E04FF400127E
:10109C0000E00222194B5A60002380F82030836A4A
:1010AC00002BBFD09847BDE72022F3E74FF4007226
:1010BC00F0E74FF40052EDE74FF40032EAE7082373
:1010CC008B401342AED015F0080FABD0236823F041
:1010DC000E032360026CC16B012303FA02F24A6017
:1010EC00836380F82130002380F82030036B002BC1
:1010FC0098D0984796E700BF0800024000000240D5
:10110C0070B582B00024A4469EE07C4DAB4214D056
:10111C000CD8A5F58015AB420FD005F57025AB4268
:10112C000BD0A5F58015AB421FD106E0744DAB4238
:10113C0003D005F58035AB4217D18B68A3B1012BD9
:10114C000DD04261082410E0CC680EE0CC68043469
:10115C000BE0CC68083408E0CC680C3405E0026184
:10116C00082402E0002400E00424BEF1FF0F37D86D
:10117C0006464FEA8C0233680F25954023EA050397
:10118C0004FA02F2134333604B6813F0805F59D0BA
:10119C005C4B9A6942F001029A619B6903F001036E
:1011AC000193019B4FEA9C02951C574B53F8256009
:1011BC000CF00305AD000F23AB4026EA0306534B9E
:1011CC00984214D003F58063984279D003F580637C
:1011DC00984277D003F58063984206D0042307E049
:1011EC00061DACF108029200C5E7032300E00023C2
:1011FC00AB4033430232444D45F822304B6813F474
:10120C00801F61D0424A936843EA0E0393604B6897
:10121C0013F4001F5ED03E4AD36843EA0E03D3603A
:10122C004B6813F4003F5BD0394A536843EA0E0312
:10123C0053604B6813F4803F58D0354A136843EA27
:10124C000E0313600CF1010C0B6833FA0CF253D043
:10125C00012202FA0CF203EA020E32EA0303F1D184
:10126C004B68122B3FF651AF122B3FF67EAF01A508
:10127C0055F823F047110008551100085F110008BC
:10128C007111000877110008771100087711000818
:10129C007711000877110008771100087711000802
:1012AC0077110008771100087711000877110008F2
:1012BC007711000877110008591100086511000812
:1012CC00012395E7022393E7114A936823EA0E035F
:1012DC0093609CE70E4AD36823EA0E03D3609FE722
:1012EC000B4A536823EA0E035360A2E7084A1368BB
:1012FC0023EA0E031360A5E702B070BD00002210B4
:10130C0000003110001002400000014000080140B4
:10131C00000401408368194201D00120704700206D
:10132C0070470AB101617047090401617047000000
:10133C0008B5054B5B69034200D108BD024B5861EF
:10134C0001F018FBF9E700BF0004014082B0084B24
:10135C001B68084AA2FB03235B0A00FB03F30193FF
:10136C0000BF019B5A1E0192002BF9D102B07047AD
:10137C0000000020D34D6210002800F0F18170B500
:10138C0082B00446036813F0010F2CD0994B5B68B4
:10139C0003F00C03042B1DD0964B5B6803F00C037D
:1013AC00082B12D06368B3F5803F41D0002B55D188
:1013BC0003F1804303F504331A6822F480321A6077
:1013CC001A6822F480221A6037E08A4B5B6813F4A7
:1013DC00803FE7D0874B1B6813F4003F03D0636852
:1013EC00002B00F0BF81236813F0020F75D0814BE6
:1013FC005B6813F00C0F5FD07E4B5B6803F00C0343
:10140C00082B54D02369002B00F08A807A4B0122E0
:10141C001A60FFF763FC0546764B1B6813F0020F4E
:10142C0075D1FFF75BFC401B0228F5D903209EE128
:10143C00704A136843F480331360636843B3FFF757
:10144C004DFC05466B4B1B6813F4003FCBD1FFF7EB
:10145C0045FC401B6428F5D9032088E1B3F5A02F87
:10146C0009D0644B1A6822F480321A601A6822F48C
:10147C0080221A60E1E703F18043A3F53C331A683C
:10148C0042F480221A601A6842F480321A60D4E75F
:10149C00FFF724FC0546574B1B6813F4003FA2D002
:1014AC00FFF71CFC401B6428F5D903205FE1514B6E
:1014BC005B6813F4803FA5D14E4B1B6813F0020FF1
:1014CC0003D02369012B40F04F814A4A136823F063
:1014DC00F803616943EAC1031360236813F0080F32
:1014EC0033D0A369002B5CD0434B0122C3F880247A
:1014FC00FFF7F4FB05463F4B5B6A13F0020F21D15B
:10150C00FFF7ECFB401B0228F5D903202FE1394AE9
:10151C00136823F0F803616943EAC1031360DCE745
:10152C00354B00221A60FFF7D9FB0546314B1B687F
:10153C0013F0020FD1D0FFF7D1FB401B0228F5D9D5
:10154C00032014E10120FFF701FF236813F0040FBF
:10155C0000F09680274BDB6913F0805F34D1254B6C
:10156C00DA6942F08052DA61DB6903F0805301934F
:10157C00019B0125214B1B6813F4807F26D0E36867
:10158C00012B3DD0002B53D103F1804303F50433E1
:10159C001A6A22F001021A621A6A22F004021A6212
:1015AC0033E0154B0022C3F88024FFF797FB054668
:1015BC00104B5B6A13F0020FC7D0FFF78FFB401B79
:1015CC000228F5D90320D2E00025D3E70B4A136893
:1015DC0043F480731360FFF781FB0646074B1B68CF
:1015EC0013F4807FCBD1FFF779FB801B6428F5D9EE
:1015FC000320BCE00010024000004242007000409A
:10160C005F4A136A43F001031362E36833B3FFF7D5
:10161C0065FB06465A4B1B6A13F0020F2FD1FFF7DE
:10162C005DFB801B41F288339842F3D903209EE086
:10163C00052B09D0524B1A6A22F001021A621A6A5F
:10164C0022F004021A62E0E74D4B1A6A42F00402DF
:10165C001A621A6A42F001021A62D6E7FFF73EFBE1
:10166C000646474B1B6A13F0020F08D0FFF736FBF8
:10167C00801B41F288339842F3D9032077E0E5B917
:10168C00E369002B72D03E4A526802F00C02082A21
:10169C0056D0022B17D03B4B00221A66FFF71EFBCD
:1016AC000446374B1B6813F0007F47D0FFF716FB3F
:1016BC00001B0228F5D9032059E0314AD36923F0E5
:1016CC008053D361DCE72F4B00221A66FFF706FB31
:1016DC0005462B4B1B6813F0007F06D0FFF7FEFA74
:1016EC00401B0228F5D9032041E0236AB3F5803F63
:1016FC001AD023494B6823F47413226A606A02439C
:10170C0013434B601F4B01221A66FFF7E7FA04469E
:10171C001B4B1B6813F0007F0ED1FFF7DFFA001B89
:10172C000228F5D9032022E0154A536823F400332C
:10173C00A1680B435360DCE7002018E0002016E0A2
:10174C00012B16D00E4B5B6803F48031226A914258
:10175C0011D103F47013626A93420ED1002006E09B
:10176C0001207047012002E0012000E0002002B0BF
:10177C0070BD0120FBE70120F9E70120F7E700BF6E
:10178C0000100240000042420F4B5B6803F00C0259
:10179C00082A01D00D487047C3F383420C49885C7A
:1017AC0013F4803F0BD0084B5B68C3F34043094AEA
:1017BC00D35C064A02FB00F0B0FBF3F07047064B1B
:1017CC0003FB00F0704700BF0010024000127A00CB
:1017DC00E43A0008E03A000800093D00002800F057
:1017EC00A08070B50D460446524B1B6803F00703EE
:1017FC008B420BD24F4A136823F007030B43136041
:10180C00136803F007038B4240F08D80236813F0BC
:10181C00020F17D013F0040F04D0474A536843F457
:10182C00E0635360236813F0080F04D0424A5368F6
:10183C0043F460535360404A536823F0F003A168AB
:10184C000B435360236813F0010F31D06368012BF5
:10185C0020D0022B25D0384A126812F0020F64D027
:10186C0035494A6822F0030213434B60FFF736FAFE
:10187C000646314B5B6803F00C036268B3EB820FD6
:10188C0016D0FFF72BFA801B41F288339842F0D91F
:10189C00032045E0284A126812F4003FE0D10120F1
:1018AC003EE0254A126812F0007FD9D1012037E0C2
:1018BC00204B1B6803F00703AB420AD91D4A13687F
:1018CC0023F007032B431360136803F00703AB42A9
:1018DC002DD1236813F0040F06D0174A536823F454
:1018EC00E063E1680B435360236813F0080F07D0E3
:1018FC00114A536823F46053216943EAC1035360CE
:10190C00FFF742FF0C4B5B68C3F303130B4AD35C2A
:10191C00D8400B4B18600B4B1868FFF79BF9002055
:10192C0070BD012070470120FAE70120F8E7012083
:10193C00F6E700BF0020024000100240D03A000839
:10194C000000002008000020014B1868704700BF01
:10195C000000002008B5FFF7F7FF044B5B68C3F3EA
:10196C000223034AD35CD84008BD00BF00100240DC
:10197C00C83A000808B5FFF7E7FF044B5B68C3F3F0
:10198C00C223034AD35CD84008BD00BF00100240FC
:10199C00C83A000830B4026A036A23F001030362F8
:1019AC004568836923F073030C681C4322F0020220
:1019BC008B6813430B4A904206D0456084614A6899
:1019CC004263036230BC704723F00803CA681A43B1
:1019DC0022F0040325F440754A692A438D691543A6
:1019EC00EBE700BF002C014030B4036A026A22F41A
:1019FC00807202624468C26922F073020D6815435A
:101A0C0023F400738A6843EA02230D4A904206D0FD
:101A1C004460C5614A68C263036230BC704723F4FA
:101A2C000063CA6843EA022323F4806324F440541D
:101A3C004A6944EA02148A6944EA0214E8E700BFDE
:101A4C00002C014030B4036A026A22F48052026214
:101A5C004468C26922F4E6420D6842EA052223F486
:101A6C0000538D6843EA0533074DA84206D0446005
:101A7C00C2614A680264036230BC704724F480443B
:101A8C004D6944EA8514F2E7002C014010B4036A56
:101A9C00046A24F001040462846924F0F00C4CEA1A
:101AAC00021223F00A030B438261036210BC7047DD
:101ABC0010B4036A046A24F010040462846924F4E8
:101ACC00704C4CEA023223F0A00343EA011382610A
:101ADC00036210BC7047836823F070030B4343F020
:101AEC00070383607047704703681F4A90420AD00F
:101AFC00B0F1804F07D0A2F59432904203D002F59A
:101B0C008062904203D123F070034A681343164A53
:101B1C0090420AD0B0F1804F07D0A2F59432904297
:101B2C0003D002F58062904203D123F44073CA685B
:101B3C00134323F080034A69134303608B68C36229
:101B4C000B688362084B98420AD0012343610369F6
:101B5C0013F0010F03D0036923F0010303617047F5
:101B6C000B690363F1E700BF002C014040B310B5D3
:101B7C00044690F83D30F3B1022384F83D30214601
:101B8C0051F8040BFFF7B0FF012384F8463084F8BA
:101B9C003E3084F83F3084F8403084F8413084F88B
:101BAC00423084F8433084F8443084F8453084F86B
:101BBC003D30002010BD80F83C30FEF75FFDDBE7C8
:101BCC000120704740B310B5044690F83D30F3B196
:101BDC00022384F83D30214651F8040BFFF784FFB3
:101BEC00012384F8463084F83E3084F83F3084F882
:101BFC00403084F8413084F8423084F8433084F823
:101C0C00443084F8453084F83D30002010BD80F815
:101C1C003C30FFF768FFDBE70120704730B4036A04
:101C2C00026A22F0100202624468826922F4E642DF
:101C3C000D6842EA052223F020038D6843EA051360
:101C4C000C4DA84206D0446082614A6882630362EC
:101C5C0030BC704723F08003CD6843EA051323F0B2
:101C6C00400324F440644D6944EA85048D6944EAD8
:101C7C008504E8E7002C014038B590F83C30012B86
:101C8C0066D004460D46012380F83C300C2A5AD805
:101C9C00DFE802F0075959591B595959305959590C
:101CAC0044000068FFF776FE2268936943F008034E
:101CBC0093612268936923F004039361226893690A
:101CCC0029690B43936100203EE00068FFF7A6FFF3
:101CDC002268936943F4006393612268936923F447
:101CEC008063936122689369296943EA01239361B4
:101CFC00002029E00068FFF777FE2268D36943F0E3
:101D0C000803D3612268D36923F00403D3612268EA
:101D1C00D36929690B43D361002015E00068FFF7F4
:101D2C0091FE2268D36943F40063D3612268D369BE
:101D3C0023F48063D3612268D369296943EA0123C0
:101D4C00D361002000E00120002384F83C3038BD32
:101D5C000220FCE710B4846824F47F4C42EA03228E
:101D6C000A4342EA0C02826010BC704790F83C3087
:101D7C00012B78D010B50446012380F83C300223A7
:101D8C0080F83D300268936823F47F4323F0770397
:101D9C0093600B68602B4CD023D8402B54D011D8B7
:101DAC00202B03D00AD80BB1102B05D11946206873
:101DBC00FFF791FE002028E0012026E0302BF5D023
:101DCC00012022E0502B0AD1CA6849680068FFF74D
:101DDC005DFE50212068FFF77EFE002015E00120FB
:101DEC0013E0B3F5805F3AD0B3F5005F14D0702BDD
:101DFC0037D1CB684A6889680068FFF7ABFF226867
:101E0C00936843F0770393600020012384F83D30FE
:101E1C00002384F83C3010BDCB684A6889680068A0
:101E2C00FFF798FF2268936843F480439360002087
:101E3C00EBE7CA6849680068FFF73AFE6021206842
:101E4C00FFF749FE0020E0E7CA6849680068FFF721
:101E5C001DFE40212068FFF73EFE0020D5E7002044
:101E6C00D3E70120D1E70220704701F01F014FF0AA
:101E7C00010C0CFA01FC036A23EA0C030362036AEB
:101E8C008A4013430362704710B50446084649BBA9
:101E9C0094F83E30013B18BF0123002B58D1002889
:101EAC0036D1022384F83E30012201462068FFF728
:101EBC00DCFF2368284A93423AD02368264A93428F
:101ECC003BD0B3F1804F38D0A2F59432934234D04A
:101EDC0002F58062934230D01A6842F001021A6017
:101EEC00002036E0042907D008290BD094F84130A3
:101EFC00013B18BF0123D0E794F83F30013B18BFDA
:101F0C000123CAE794F84030013B18BF0123C4E712
:101F1C00042805D0082807D0022384F84130C3E7F1
:101F2C00022384F83F30BFE7022384F84030BBE73C
:101F3C005A6C42F400425A64BFE79A6802F00702F6
:101F4C00062A07D01A6842F001021A60002000E04D
:101F5C00012010BD0020FCE7002C014090F83C2033
:101F6C00012A2CD010B40346012280F83C20022216
:101F7C0080F83D2002685068946820F0700C086866
:101F8C0040EA0C0050601A680E4882420AD0B2F146
:101F9C00804F07D0A0F59430824203D000F58060CA
:101FAC00824204D124F080044968214391600122CB
:101FBC0083F83D20002083F83C0010BC70470220C1
:101FCC00704700BF002C0140024690F83C30012BBA
:101FDC0021D0012380F83C30CB6823F4407388680F
:101FEC00034323F480634868034323F400630868C5
:101FFC00034323F480530869034323F400534869D3
:10200C00034323F48043C9690B4311684B640020DC
:10201C0082F83C00704702207047026802F10C0302
:10202C0053E8003F23F0C0030C3242E80031002992
:10203C00F3D1202380F841307047026802F10C0381
:10204C0053E8003F23F490730C3242E8003100292E
:10205C00F3D1026802F1140353E8003F23F00103AB
:10206C00143242E800310029F3D1036B012B05D067
:10207C00202380F84230002303637047026802F18A
:10208C000C0353E8003F23F010030C3242E80031FC
:10209C000029F3D1ECE790F84130212B01D002203C
:1020AC0070478368B3F5805F17D0036A5A1C0262CD
:1020BC001A7803685A60C38C9BB2013B9BB2C384F1
:1020CC004BB90268D36823F08003D3600268D368ED
:1020DC0043F04003D360002070470369002BE4D128
:1020EC00036A1B880268C3F308035360036A023354
:1020FC000362E0E710B504460268136923F4405309
:10210C00C1680B43136183680269134342691A4324
:10211C000168CB6823F4B05323F00C031343CB605A
:10212C000268536923F4407381690B43536102685D
:10213C00134B9A4220D0FFF70DFC024602EB8202B1
:10214C0002EB820263689B00B2FBF3F20D48A0FB2A
:10215C0002314909642303FB11231B013233A0FB19
:10216C0003035B0903F0F00202EB011203F00F030F
:10217C00216813448B6010BDFFF7FCFB0246DDE7C2
:10218C00003801401F85EB5160B310B5044690F840
:10219C00413013B3242384F841302268D36823F4EC
:1021AC000053D3602046FFF7A5FF2268136923F480
:1021BC00904313612268536923F02A035361226808
:1021CC00D36843F40053D36000206064202384F868
:1021DC00413084F84230606310BD80F84030FEF727
:1021EC009DFCD7E701207047704708B50168CA68A5
:1021FC0022F04002CA60202280F84120FFF7F4FF51
:10220C00002008BD7047704710B5446A23685B69AD
:10221C0094F84120212A0FD023685B6903F0400316
:10222C0094F84220222A11D0636C43F010036364AB
:10223C002046FFF7E8FF10BD03F08003002BEBD026
:10224C000023E3842046FFF7E8FEE5E7002BEBD004
:10225C000023E3852046FFF7F0FEE5E708B5406A6A
:10226C000023C385C384FFF7CEFF08BD704790F8E9
:10227C004230222B69D18368B3F5805F4FD0826ADC
:10228C00B3F5805F04D0002B56D10369002B53D1DA
:10229C0003685B681370836A01338362C38D9BB2DE
:1022AC00013B9BB2C385002B51D100B583B00268B2
:1022BC00D36823F02003D3600268D36823F48073BF
:1022CC00D3600268536923F001035361202380F823
:1022DC00423000234363036B012B33D10023036390
:1022EC00026802F10C0353E8003F23F010030C3298
:1022FC0042E800310029F3D103681A6812F0100F7C
:10230C0006D0002201921A6801925B680193019B2E
:10231C00818DFFF7ABFF002003B05DF804FB026971
:10232C00002AACD1826A03685B68C3F3080313808C
:10233C00836A02338362B1E703685B6803F07F034F
:10234C001370A8E700F0DCFAE5E7022070470020E4
:10235C007047000010B582B0044602681368D0685C
:10236C00516913F00F0F09D113F0200F0CD010F09E
:10237C00200F09D02046FFF77AFF16E011F001017B
:10238C0015D110F4907F12D1216B012979D013F063
:10239C00800F03D010F0800F40F0138113F0400F2A
:1023AC0003D010F0400F40F0108102B010BD13F0BC
:1023BC00010F06D010F4807F03D0626C42F0010252
:1023CC00626413F0040F04D019B1626C42F0020283
:1023DC00626413F0020F04D019B1626C42F0040273
:1023EC00626413F0080F07D010F0200F00D119B160
:1023FC00626C42F008026264626C002AD5D013F061
:10240C00200F02D010F0200F29D123685B6903F054
:10241C004003626C12F0080F00D163B32046FFF743
:10242C000CFE23685B6913F0400F20D0226802F188
:10243C00140353E8003F23F04003143242E8003108
:10244C000029F3D1E36B73B1624A5A63E06BFEF778
:10245C0069FD0028A9D0E06B436B9847A5E720469F
:10246C00FFF705FFD1E72046FFF7CDFE9DE720469D
:10247C00FFF7C9FE99E72046FFF7C5FE002363640A
:10248C0093E713F0100F82D010F0100F3FF47FAFD2
:10249C00002301931368019353680193019B5369C3
:1024AC0013F0400F51D0E26B13685B689BB2002BAA
:1024BC003FF47BAFA18D99427FF677AFE3859369AB
:1024CC00202B37D0226802F10C0353E8003F23F491
:1024DC0080730C3242E800310029F3D1226802F1FA
:1024EC00140353E8003F23F00103143242E8003197
:1024FC000029F3D1226802F1140353E8003F23F0C2
:10250C004003143242E800310029F3D1202384F82F
:10251C00423000232363226802F10C0353E8003F8E
:10252C0023F010030C3242E800310029F3D1E06BA8
:10253C00FEF7D6FC02236363A18DE38D9BB2C91A0F
:10254C0089B22046FFF792FE2FE7A18DE38D9BB257
:10255C00C91A89B2E38D9BB2002B3FF426AF002938
:10256C003FF423AF226802F10C0353E8003F23F43D
:10257C0090730C3242E800300028F3D1226802F14B
:10258C00140353E8003F23F00103143242E80030F7
:10259C000028F3D1202384F84230002323632268DF
:1025AC0002F10C0353E8003F23F010030C3242E815
:1025BC0000300028F3D1022363632046FFF756FE58
:1025CC00F3E62046FFF767FDEFE62046FFF70DFE2A
:1025DC00EBE600BF6922000808B5406A012343639B
:1025EC00036B012B02D0FFF70DFE08BD818D49084E
:1025FC00FFF73CFEF9E708B50346406A1B681B6809
:10260C0013F0200F2BD10023C385026802F10C03B9
:10261C0053E8003F23F480730C3242E80031002968
:10262C00F3D1026802F1140353E8003F23F00103D5
:10263C00143242E800310029F3D1026802F114038C
:10264C0053E8003F23F04003143242E800310029E4
:10265C00F3D1202380F84230036B012B07D00023E9
:10266C004363036B012B0FD000F04AF908BD0268DD
:10267C0002F10C0353E8003F23F010030C3242E844
:10268C0000310029F3D1EAE7818DFFF7EFFDEDE78B
:10269C0030B583B0044613468162828500254564BB
:1026AC00222280F84220C26B1F489062E26B1F48C6
:1026BC00D062E26B1E481063E26B556320680A46D9
:1026CC00011DE06BFEF7D2FB019523681A6801929D
:1026DC005B680193019B23695BB1226802F10C03D7
:1026EC0053E8003F43F480730C3242E80031002978
:1026FC00F3D1226802F1140353E8003F43F00103C5
:10270C00143242E800310029F3D1226802F114039B
:10271C0053E8003F43F04003143242E800310029F3
:10272C00F3D1002003B030BD03260008E5250008D6
:10273C001522000808B590F84230202B08D149B179
:10274C000AB9012008BD00230363FFF7A1FFF9E7D5
:10275C000220F7E70120F5E7084B002119705970AA
:10276C0001229A70D9701A715A7199711020D8710E
:10277C001A72597211219972DA727047640300202F
:10278C0008B500210748FFF77FFB00210648FFF73B
:10279C007BFB00210548FFF777FB00210448FFF77E
:1027AC0073FB08BD4802002000020020B801002085
:1027BC007001002010B5374BDB7A002B37D0364C2C
:1027CC00012280212046FEF7ACFD0022402120464C
:1027DC00FEF7A7FD2F4B5B79ABB32F4C01222021C9
:1027EC002046FEF79EFD002210212046FEF799FDA3
:1027FC00284B9B789BB3294C012202212046FEF7E3
:10280C0090FD002201212046FEF78BFD214B1B7A07
:10281C008BB3224C01224FF400612046FEF781FD60
:10282C0000224FF480612046FEF77BFD10BD1A4C50
:10283C00012240212046FEF774FD00228021204613
:10284C00FEF76FFDC6E7144C012210212046FEF75F
:10285C0068FD002220212046FEF763FDC8E70F4CDF
:10286C00012211462046FEF75CFD00220221204683
:10287C00FEF757FDCAE7094C01224FF48061204650
:10288C00FEF74FFD00224FF400612046FEF749FD94
:10289C00CCE700BF6403002000080140000C01409D
:1028AC0010B4034CA07061712272E37210BC7047BB
:1028BC006403002010B4034C2070E170A2716372A9
:1028CC0010BC704764030020084B1A68084B197839
:1028DC005163084A1268D9785163074A126899798A
:1028EC005163064A12685B7A5363704748020020B2
:1028FC0064030020B80100207001002000020020B9
:10290C0008B51A4B834205D0012219491748FFF725
:10291C0011FF08BD164B1B7893B1154B1B78012B7F
:10292C0015D0134B1B78022B18D0114B1B78032B93
:10293C00EAD101231A4600210846FFF7B1FFE3E76D
:10294C0001231A4619461846FFF7AAFFE5E70023AC
:10295C001A4619461846FFF7A3FFE2E700230122A7
:10296C0011461846FFF79CFFDFE700BF1803002055
:10297C0071030020014B01221A7070477003002074
:10298C0008B5FFF717FFFFF79FFF08BD08B54FF419
:10299C0080612B48FEF7BEFC40B94FF4006100F19A
:1029AC00804000F58430FEF7B5FC68B14FF48061CF
:1029BC002348FEF7AFFC012815D04FF48061204866
:1029CC00FEF7A8FC28B308BD01231A461946184681
:1029DC00FFF766FF32231A4619461846FFF76AFFBF
:1029EC00FFF7CEFFEFE74FF400611548FEF792FCBE
:1029FC000028E2D101231A4600210846FFF750FFB8
:102A0C0050231A4619461846FFF754FFFFF7B8FF34
:102A1C00D9E74FF400610A48FEF77CFC0128D2D1BB
:102A2C0000231A4601210846FFF73AFF50231A46A5
:102A3C0019461846FFF73EFFFFF7A2FFC3E700BF9A
:102A4C000008014008B5FFF787FE08BD08B5FEF782
:102A5C0027F9FDF77FFDFDF707FDFDF7E3FCFEF71A
:102A6C0043F8FDF7CFFEFDF73FFFFDF791FFFDF7B4
:102A7C00E5FF012203490448FFF75CFEFFF780FEE7
:102A8C0008BD00BF710300201803002008B5FFF734
:102A9C00DDFF024B1878FFF779FFFAE7700300208F
:102AAC0003685A004CBF43F0004323F00043184422
:102ABC00704700BF2DE9F04741B301F1FF380546DF
:102ACC00164647460024E11901EBD171491005EB7C
:102ADC00C10A5046FFF7E4FF884503464FEAC10997
:102AEC000ED009F10800B34228440BD8FFF7D8FFE9
:102AFC000138B04201F10104E5D35046BDE8F0873E
:102B0C00B042FAD98C4201D04F1EDCE74FF0000ADC
:102B1C005046BDE8F08700BF012806D0022802D03D
:102B2C0028B904487047044870470448704700208F
:102B3C00704700BF213200083132000829320008EA
:102B4C0030B5224B044683B08D1E3BB3284601A9F9
:102B5C00AFF30080E8B101992A46FFF7ABFF0146BD
:102B6C00B8B1FFF79DFF4B68A064012B2BD0002B55
:102B7C0026DB081DFFF794FF002323650368E06440
:102B8C00002B12DBFFF78CFF03460020236103B000
:102B9C0030BD00230920236103B030BD0C4B0D491F
:102BAC001846C91AC9100191D6E7C3F30360FFF7A1
:102BBC00B3FF031E0CBF09200020236103B030BDFE
:102BCC000123081DD9E700230520DFE700000000E2
:102BDC00483B0008303C0008036810B5DA0704468F
:102BEC0006D49B0700F1500009D5FDF79DFA236828
:102BFC00590709D51A070ED5DB0613D510BDFDF7FD
:102C0C008BFA23685907F5D404F1D800FDF794FA30
:102C1C0023681A07F0D404F5AC70FDF795FA236815
:102C2C00DB06EBD404F5EC70BDE81040FDF7D0BA30
:102C3C000346006800B11844704700BF704700BFDE
:102C4C0070B504460E462046316CFFF779FF0546F9
:102C5C0098B9D6F840C03246214601202369C4F801
:102C6C0014C098470828EED0072806D12846316CA6
:102C7C00FFF7E4FF301DFDF743FA00F0E5FD00BF60
:102C8C002DE9F04F4FF0000EADF5777D0DF10C0CEA
:102C9C000F1DD0F80C90D0F818A0064614460FCF94
:102CAC00ACE80F000FCFACE80F000FCFACE80F0073
:102CBC0097E80F0002AD8CE80F000DF5F878C5F819
:102CCC0000E021E02B6C4FF4F4722946736140460E
:102CDC00FDF7ECFA4246314633695846984721468F
:102CEC00D8F838400746AC64012033463246CDE96B
:102CFC00005AC847044618BB4FF4F47241462846A4
:102D0C00FDF7D4FA082F19D13046296CFFF718FFBC
:102D1C00093407465FFA84FB0028D3D0A96B3346ED
:102D2C00A96432460120CDE9005A4BF01001C84786
:102D3C0030B938460DF5777DBDE8F08F072F05D0FB
:102D4C00092738460DF5777DBDE8F08F2046296CB4
:102D5C00FFF774FF03A8FDF7D3F900BFF0B54FF0F0
:102D6C00FF3ECB6BFBB001AC0B6401F1040C0F46C6
:102D7C000546BCE80F000FC4BCE80F000FC4BCE84C
:102D8C000F000FC49CE80F006E4684E80F00CDF8CE
:102D9C0000E006E0324629462B699847082804468D
:102DAC0008D12846316CFFF7CBFE0028F2D0092061
:102DBC007BB0F0BD3046FFF70FFF062CF7D139463C
:102DCC002846FFF73DFF00BF10B414468461DC6B4E
:102DDC00C16000221C64194610BCFFF751BF00BF34
:102DEC0070B54369C6680B64AEB90A4603690446FC
:102DFC000D46014602209847072805D008280FD118
:102E0C0029462046FFF71CFF3046296CFFF716FFBA
:102E1C00281DFDF775F90122FFF732FF00F014FDB4
:102E2C0000F012FDC26808B542B1BDE80840D1F807
:102E3C003CC00022C1F840C0FFF722BFFFF78EFF55
:102E4C00092008BD052915D8DFE801F00A03140391
:102E5C00030501207047436C009A002013607047F3
:102E6C0043B90F2A06D800EB82025368009A00205F
:102E7C001360704702207047002300B585B00A46E6
:102E8C0003A900911946FFF7DDFF039805B05DF823
:102E9C0004FB00BF052915D8DFE801F00A03140371
:102EAC00030501207047009B1B684364002070479A
:102EBC0043B90F2A06D8009B00EB82021B68002046
:102ECC005360704702207047002310B584B003ACE8
:102EDC00039200940A461946FFF7DCFF04B010BDBC
:102EEC002DE9F0414FF0FF38D36BADF5107D0DF1AE
:102EFC005C0E136402F1040C07460E46BCE80F008E
:102F0C00AEE80F00BCE80F00AEE80F00BCE80F0005
:102F1C00AEE80F009CE80F0016AC6D468EE80F0073
:102F2C00C4F8008012E00C2120462A46FFF7CCFFA3
:102F3C0031462046B84778B92246294608202B69E5
:102F4C0098470528804609D0092805D02846216CC9
:102F5C00FFF7F6FD0028E6D04FF009082046FFF7F2
:102F6C003BFE40460DF5107DBDE8F0812DE9F04F9C
:102F7C001646CA6C0D4652F8041B89B000F0030CBF
:102F8C000692E3B102240F0C8DF81D700904FFB2F8
:102F9C00059102EB8702296DBCF1020F08BFAA6BE9
:102FAC0011F001088DF81C400FD0304605A900F037
:102FBC00CBFA002839D1082009B0BDE8F08F0902FE
:102FCC00032405918DF81D30E5E71768002FECD030
:102FDC00E3469A4600F008010191CDF80880BAF159
:102FEC00020F26D01788548802F10409AA6C24F029
:102FFC0001030F21304603EB0208FFF73DFF80452C
:10300C0015D827F0010202EB0803834294BF00237A
:10301C000123640004F0020407F001072743012F89
:10302C000BD0022F50D0002F45D00920C4E700232D
:10303C00EFE7546802F10809D8E7BBF1000F73D130
:10304C00CBB1D9F80430D9F80020991C4FEAD272D0
:10305C00EBD005F158040133049400F0CD8009F154
:10306C000400FFF7E5FD04AB01462846AFF30080F2
:10307C00002840F0978009F108021768002FAED1A4
:10308C00304605A9DDF8088000F05EFA0028CCD1A6
:10309C00B8F1000F8FD00F213046FFF7EDFE0E2157
:1030AC0002463046FFF710FF0F213046584AFFF713
:1030BC000BFF072080E7BBF1000F02D0002B40F084
:1030CC00888009F10402D8E7D9F8004024F00048C0
:1030DC00BBF1000F0FD12BB1019B002B3CD0B8F1F1
:1030EC00000F39D0002C01DA09F1040908F10102B2
:1030FC0009EB8202C1E70D213046FFF7BDFE2F6AB6
:10310C008742EFD1AB6A9945ECD100240423C5E981
:10311C000B434B44C5F828806B63D9F80030A342AD
:10312C0071DB01230293E1E70D213046FFF7A4FE8A
:10313C002C6A84429FD1AB6A99459CD14846FFF7D3
:10314C00AFFC0F2102463046FFF7BEFE2A46002197
:10315C003046FFF7B9FEACE705F15803CDF80CB0DB
:10316C000024B34609F104071E460BE038460496CA
:10317C00FFF75EFD0022014604AB2846AFF300804A
:10318C00043700BB444504F10104EFD10D2158462E
:10319C00FFF772FE0246049B0620C5E90823C5F81A
:1031AC00289009E704460D213046FFF765FE049E82
:1031BC00022C08BFEE62286208BF05F12C0606201F
:1031CC00C5E90969F8E65E46D9F80040DDF80CB0AF
:1031DC0088E74846FFF764FC09F104020446AA6339
:1031EC002846AFF3008000283FF41FAF22460F2182
:1031FC003046FFF769FE5CE730460D21FFF73CFED9
:10320C0026462862DBE708F1010209EB820096E70B
:10321C00000000000023FFF7A9BE00BF0123FFF749
:10322C00A5BE00BF0223FFF7A1BE00BF2DE9F041F0
:10323C0005461446C4B0052908D8DFE801F0162D60
:10324C00076E950B3A19102A40F2B480022044B054
:10325C00BDE8F081836B002CF8D153F8042B426449
:10326C008363002044B0BDE8F081002BEED14FF019
:10327C00010E816B2A1DA0B20EFA03FC1CEA000F92
:10328C001CBF51F8046B42F823600133102BF3D1AF
:10329C00A004E6D4A963E4E7012B4FEA1447A4B2D7
:1032AC00D0D0052BD2D107EB0408B8F1200FCDD824
:1032BC000F2F40F2BC80002CD3D00268A0465107DF
:1032CC0000F11A81019302AC2046FCF739FFD5F8C6
:1032DC0038C0019B102F39464FEA480838BF1021DF
:1032EC0008F1FF384246604604EBC101843950F8BE
:1032FC00046B013A41F8046F561CF8D10CF1040C24
:10330C00012B0CEB880200F0D6800F2FAA6340F241
:10331C00FB802046FCF710FFA3E7032B96D11FFA86
:10332C0084F808EB1443102B4FEA14448ED803682E
:10333C001E0700F1A38022AE3046FCF727FF4FEAB0
:10334C004801AF6B06EBC4024B1E41B1B81A1158C1
:10335C00013B5C1C42F8041BF9D107EBC807304653
:10336C00AF63FCF7F1FE7CE7002B7FF46FAF102C02
:10337C003FF66CAF0368D80678D422AE3046FCF723
:10338C0031FF012700233046A96B07FA03F22242D2
:10339C0003F1010305D00A4652F804CB1146C0F8DC
:1033AC0000C0042B00F10400EFD13046A963FCF7F8
:1033BC000FFF56E7102F3FF449AF0268D10708D52D
:1033CC00284622F0030240F8502B0193FCF7A8FE8C
:1033DC00019B22AE30460193FCF7A2FED5F838C013
:1033EC00002C6AD04FF00008019B4FEA440E0EF1FE
:1033FC00FF3E7246604606EBC701043950F8044B99
:10340C00013A41F8044F541CF8D10CF1040C0CEBAC
:10341C008E0CB8F1000F39D1012B4ED00F2FC5F8FF
:10342C0038C03FF61EAF3046FCF77EFE19E7026847
:10343C00B8F1100F02F001012AD851B1284622F040
:10344C00010242F0020240F8502B0193FCF770FE8F
:10345C00019B22AE30460193FCF76AFE019B002CC7
:10346C00E1D04FF00008D5F838C0BEE723F01003C8
:10347C002B6005F5EC70FCF7B5FE7EE723F0080336
:10348C00036000F5AC70FCF781FE54E702AC21E759
:10349C00D1B9560726D422AE30460193FCF748FE2C
:1034AC0002A8FCF74DFEA8F11008D5F838C0019B16
:1034BC00C7F1100499E7944622AE0CF10403304690
:1034CC00AB63FCF729FECCE622F0010242F00202CB
:1034DC0040F8502B0193FCF72BFE2A68019B12F04D
:1034EC00040FD8D0284622F0040240F8D82B0193C0
:1034FC00FCF726FE019BCEE722F0040240F8D82B05
:10350C000193FCF71DFEDEE622A8FCF70DFE00E79A
:10351C00027A03467AB9427AA2B14FF0030C4168A1
:10352C00013A427208680A1D5A60020283F808C008
:10353C00000E1A6070470068013A1A7202021A6093
:10354C00000E7047B02070472DE9F0430027064667
:10355C000D4685B02846FFF7DBFFB028044600F087
:10356C00178103065FD500F0F003A02B1DD033D8D4
:10357C00802B00F08880902B2AD100F00D030D2BAE
:10358C0026D000230DF10808194600F00F02CDF8E3
:10359C0000803046FFF756FC00230D2219463046BA
:1035AC00CDF80080FFF776FCD4E7C3434FF47F627D
:1035BC0003F007031A41010702F47F6201D542F4BC
:1035CC008042002330461946FFF730FE0028C1D058
:1035DC00092005B0BDE8F083B02B69D0C02B40D1D9
:1035EC00C62800F0C180C72800F0D58000F0F80391
:1035FC00C02B00F0E280C82800F0ED80C928E7D18C
:10360C002846FFF785FF052301210446220304F019
:10361C000F0402F470220C4430462243FFF706FEDE
:10362C00002897D0D4E78300DBB203F10408002311
:10363C000DF1080919460D223046CDF80090FFF720
:10364C0001FC0023029A60064CBFA2EB0802424424
:10365C00029230460D221946CDF80090FFF71AFC65
:10366C0078E700F0F803D02BB2D100F0070201325A
:10367C0005230121304642F40022FFF7D7FD002834
:10368C003FF468AFA4E72846FFF742FF240220432B
:10369C00B0F5004F9CD00023040119463046A2B26D
:1036AC00FFF7C4FD002893D1C4F3C030074351E7A2
:1036BC00A0F1B103042B00F2B380DFE803F04B1D43
:1036CC00160C0300002303AA009230460D22194663
:1036DC00FFF7B8FB3EE70023052130461A46FFF7FB
:1036EC00A5FD00283FF436AF72E72846FFF710FF20
:1036FC0001230446194689E700230DF108090D2220
:10370C0019463046CDF80090FFF79CFB2846FFF792
:10371C00FFFE02064FF00208029C0CD500F07F0061
:10372C0000FA08F0044428460294FFF7F1FE030661
:10373C0008F10708F2D4002300FA08F004F501742C
:10374C00204402900D2230461946CDF80090FFF728
:10375C00A1FBFFE62846FFF7DBFE431EDBB20E2B78
:10376C0002467FF62EAF33E72846FFF7D1FE04461C
:10377C000323220304F00F0402F4702201341946CF
:10378C0030462243FFF752FD00283FF4E3AE1FE71B
:10379C00B7B300201DE72846FFF7BAFE431EDBB285
:1037AC000E2B02463FF614AF002304213046FFF7E0
:1037BC003DFD00283FF4CEAE0AE7032300F00F02D4
:1037CC0001323046194642F42022FFF72FFD002823
:1037DC003FF4C0AEFCE62846FFF79AFE02460121F4
:1037EC0002F0F00402F00F0210340A4405233046B4
:1037FC0042EA0432FFF71AFD00283FF4ABAEE7E6CD
:10380C0002AC3B4639460E2230460094FFF71AFBB9
:10381C000F223B46394630460094FFF73BFBB8E796
:10382C0000F0FC03B42B3FF4D3AE012300F00702ED
:10383C001A443046194642F40022FFF7F7FC0028E0
:10384C003FF488AEC4E600BF062008B500F052F87D
:10385C000120FCF70BFF00BF830730B546D0844630
:10386C00841805E0634603F8011B9D0703D09C46B2
:10387C00A445F7D130BD013A0244A2EB0C02032A55
:10388C0029D9CCB204EB04240F2A04EB04442FD91D
:10389C00A2F1100C2CF00F0C03F11005AC44C3E991
:1038AC000044C3E9024410336345F8D112F00C0F05
:1038BC0002F00F0E18D01A462EF0030C9C44AEF1F9
:1038CC00040542F8044B6245FBD125F00304043394
:1038DC000EF003022344002ACCD0C9B21A4403F8D8
:1038EC00011B9342FBD130BD7246F4E70346C6E799
:1038FC009646E0E738B5144B1F281D681ED8D5F83E
:10390C003821044662B152F820304BB1012B05D05E
:10391C00591C0FD0002142F820109847002038BDC8
:10392C00284600F027F8224601462846BDE83840D4
:10393C0000F00CB8162301202B6038BD16234FF075
:10394C00FF302B6038BD00BF0C00002070B5002686
:10395C00074D0446084611462E60FCF77FFE431CBB
:10396C0000D070BD2B68002BFBD0236070BD00BF56
:10397C00AC040020FCF770BE014B1868704700BF08
:10398C000C00002070B50F4B0F4DAB42A3EB05069E
:10399C0007D00024B61055F8043B01349847A642D2
:1039AC00F9D800F07FF8094D094B5E1BAB424FEA8A
:1039BC00A60606D0002455F8043B01349847A642CD
:1039CC00F9D870BD303C0008303C0008303C000891
:1039DC003C3C0008704700BF704700BF024B13B15E
:1039EC00024800F005B8704700000000093A0008D2
:1039FC00002301461A46184600F014B838B5074D96
:103A0C00074C2C1BA41005D0013C55F8043D9847DD
:103A1C00002CF9D1BDE8384000F04AB8403C000811
:103A2C003C3C00082DE9F8431B4D06462868984697
:103A3C000F469146FFF7CEFF184B1C681CB3286845
:103A4C0065681F2D22DC4EB96B1C0235636044F88F
:103A5C002570FFF7C1FF0020BDE8F883012304EBBC
:103A6C008501C1F88890D4F88821AB401A43022E06
:103A7C00C4F88821C1F80881E6D1D4F88C211A4306
:103A8C00C4F88C21E0E7064C1C60D8E7FFF7A4FFD4
:103A9C004FF0FF30E0E700BF50010020B4040020DD
:103AAC00B8040020F8B500BFF8BC08BC9E467047AF
:0C3ABC00F8B500BFF8BC08BC9E4670477F
:103AC80000000000010203040000000000000000E4
:103AD80001020304060708090102000002030405A5
:0C3AE800060708090A0B0C0D0E0F101049
:103AF40008B10181B0B000840000000008B1018168
:103B0400B0B000840000000008B10181B0B00084AE
:103B14000000000008B10181B0B000840000000082
:103B240008B10181B0B000840000000008B1018137
:103B3400B0B000840000000008B10181B0B000847E
:043B4400000000007D
:103B480070C7FF7F010000003CECFF7FA0FFFF7FF4
:103B580068ECFF7FB0B0A8804CEDFF7F010000004B
:103B6800A4EDFF7F94FFFF7F10EEFF7F01000000B0
:103B780014EEFF7F90FFFF7F18EEFF7F94FFFF7F1B
:103B8800C8EEFF7F01000000C8EEFF7F90FFFF7FB7
:103B980000EFFF7F94FFFF7F0CEFFF7F0100000025
:103BA800A4EFFF7FB0A9028034F0FF7FB0B0A880F7
:103BB80084F0FF7F010000008CF0FF7FB0B0AA8086
:103BC800C4F0FF7FAF76B28098F1FF7FAB3F3A80B9
:103BD800FCF1FF7F010000000CF2FF7FB0B0AA806B
:103BE80048F2FF7F50FFFF7F60F2FF7F0100000077
:103BF800F4F2FF7FAC0FB28078F3FF7FB0AF08809C
:103C080018F6FF7F0100000028F6FF7FAC3F038015
:103C180004F9FF7F0100000034F9FF7FB0AD048094
:083C28002CFCFF7F01000000ED
:0C3C3000E93900080D040008512A0008C2
:043C3C00E503000894
:103C400000127A00010000001000000010000020A7
:103C50000000000074030020DC0300204404002066
:103C60000000000000000000000000000000000054
:103C70000000000000000000000000000000000044
:103C80000000000000000000000000000000000034
:103C90000000000000000000000000000000000024
:103CA0000000000000000000000000000000000014
:103CB0000000000000000000000000000000000004
:103CC00000000000000000000000000000000000F4
:103CD00000000000000000000000000000000000E4
:103CE00000000000000000000100000000000000D3
:103CF0000E33CDAB34126DE6ECDE05000B00000098
:103D000000000000000000000000000000000000B3
:103D100000000000000000000000000000000000A3
:103D20000000000000000000000000000000000093
:103D30000000000000000000000000000000000083
:103D40000000000000000000000000000000000073
:103D50000000000000000000000000000000000063
:103D60000000000000000000000000000000000053
:103D70000000000000000000000000000000000043
:103D80000000000000000000000000000000000033
:043D9000B00400205B
:0400000508000C15CE
:00000001FF
